:020000040800F2
:1000000000C00020050800087106000879060008F5
:10001000810600088906000891060008000000001B
:100020000000000000000000000000009906000829
:10003000A706000800000000B5060008C306000877
:10004000550800085508000855080008550800081C
:10005000550800085508000855080008550800080C
:1000600055080008550800085508000855080008FC
:1000700055080008550800085508000855080008EC
:1000800055080008550800085508000855080008DC
:1000900055080008550800085508000855080008CC
:1000A00055080008550800085508000855080008BC
:1000B0005508000800000000000000005508000876
:1000C000550800085508000855080008550800089C
:1000D000550800085508000855080008550800088C
:1000E0005508000855080008000000000000000046
:1000F0000000000000000000000000000000000000
:100100000000000055080008000000005508000825
:100110000000000000000000550800085508000815
:10012000550800085508000855080008550800083B
:10013000550800080000000000000000000000005A
:100140005508000855080008550800080000000080
:10015000550800085508000855080008550800080B
:100160005508000855080008550800080000000060
:1001700055080008550800080000000000000000B5
:0C01800055080008550800085508000844
:10018C0010B5054C237833B9044B13B10448AFF3C5
:10019C0000800123237010BD0C0000200000000023
:1001AC00882C000808B5034B1BB103490348AFF377
:1001BC00008008BD0000000010000020882C000802
:1001CC0053B94AB9002908BF00281CBF4FF0FF31B2
:1001DC004FF0FF3000F088B9ADF1080C6DE904CE9A
:1001EC0000F006F8DDF804E0DDE9022304B0704706
:1001FC002DE9F047089D8E4604468846002B4AD1CF
:10020C008A42174662D9B2FA82F64EB1C6F1200381
:10021C0001FA06F820FA03F3B74043EA0808B440A1
:10022C004FEA174E1FFA87FCB8FBFEF1230C0EFBAE
:10023C00118843EA084301FB0CF29A4209D9FB18D6
:10024C0001F1FF3080F0EA809A4240F2E7800239F7
:10025C003B449A1AA3B2B2FBFEF00EFB102243EA07
:10026C00024300FB0CFC9C4509D9FB1800F1FF3242
:10027C0080F0D6809C4540F2D3803B44023840EA63
:10028C000140A3EB0C0300211DB1F3400022C5E992
:10029C000032BDE8F0878B4205D90DB1C5E90001EC
:1002AC0000210846F5E7B3FA83F1002946D17345DE
:1002BC0002D3824200F20581841A6EEB0302012004
:1002CC009046002DE5D0C5E90048E2E7002A00F091
:1002DC009080B2FA82F6002E40F0A4808A1A030CA9
:1002EC004FEA174E80B2BCB20121B2FBFEFC0EFBF2
:1002FC001C2243EA024304FB0CF29A4207D9FB1876
:10030C000CF1FF3802D29A4200F2E080C4469B1AEC
:10031C00B3FBFEF20EFB123340EA034302FB04F480
:10032C009C4207D9FB1802F1FF3002D29C4200F22A
:10033C00CA8002461B1B42EA0C40A5E7C1F120060D
:10034C008B4022FA06F71F430EFA01F420FA06F34B
:10035C002EFA06FE4FEA1749234300FA01F81FFA5A
:10036C0087FCBEFBF9F01C0C09FB10EE44EA0E44B2
:10037C0000FB0CFEA64502FA01F209D93C1900F16A
:10038C00FF3A80F09C80A64540F2998002383C44AC
:10039C00A4EB0E041FFA83FEB4FBF9F309FB134420
:1003AC004EEA044403FB0CFCA44508D93C1903F1A8
:1003BC00FF3E80F08280A4457FD9023B3C4443EA57
:1003CC000040A4EB0C04A0FB02EC64457346E14630
:1003DC0062D35FD05DB1B8EB030264EB090404FA9D
:1003EC0006F622FA01F31E43CC40C5E90064002155
:1003FC004FE7B1FBF2FC010C41EA0E4180B240EA3E
:10040C0001423B4638463C46B846BE462026B1FB28
:10041C00F7F1A2EB080241EA0C4166E7014618E746
:10042C0010462CE7C6F120022EFA02F3B740B14079
:10043C0020FA02F24FEA174E0A43B3FBFEF8BCB2A5
:10044C000EFB1833110C41EA034108FB04F9B040D0
:10045C0089454FEA104380B23ED9791808F1FF3C28
:10046C0001D289451FD8A1EB0901B1FBFEF909FBAB
:10047C0004F80EFB191192B242EA0142424529D20C
:10048C00BA1809F1FF31C4D24245C2D2A9F1020116
:10049C003A44BEE7F0459DD2BEEB02036CEB070C71
:1004AC000138E14696E7A7EB09094944A8F1020C8B
:1004BC00B1FBFEF909FB04F8DBE773467FE7504616
:1004CC0066E70846FDE63B44023A33E7ACF1020C22
:1004DC003B441CE749469CE7A1EB0901C446B1FB30
:1004EC00FEF909FB04F8C4E7704700BF80B483B081
:1004FC0000AF0F4BDB6C0E4A43F08003D3640C4B04
:10050C00DB6C03F080037B607B68094BDB6C084A77
:10051C0043F00103D364064BDB6C03F001033B6037
:10052C003B6800BF0C37BD465DF8047B704700BFCD
:10053C000010024080B500AF00F087F900F016F80B
:10054C00FFF7D4FF00F0D0F84FF0FF330422054939
:10055C00054801F067FE4FF47A7000F0EBF900BF2C
:10056C00F2E700BFA02C00082800002080B596B050
:10057C0000AF07F1140344220021184602F051FB8E
:10058C003B4600221A605A609A60DA601A614FF496
:10059C00007000F061FC0346002B01D000F038F82D
:1005AC0010237B610123FB6200233B6360237B638D
:1005BC000223FB6301233B6401237B642823BB647C
:1005CC000723FB6402233B6502237B6507F11403BD
:1005DC00184600F097FC0346002B01D000F018F8E9
:1005EC000F233B6003237B600023BB600023FB6075
:1005FC0000233B613B460421184601F097F8034663
:10060C00002B01D000F004F800BF5837BD4680BD68
:10061C0080B400AF72B600BF00BFFDE780B483B0FA
:10062C0000AF0F4B1B6E0E4A43F0010313660C4BCD
:10063C001B6E03F001037B607B68094B9B6D084AC2
:10064C0043F080539365064B9B6D03F080533B60E6
:10065C003B6800BF0C37BD465DF8047B704700BF9C
:10066C000010024080B400AF00BFFDE780B400AFC3
:10067C0000BFFDE780B400AF00BFFDE780B400AF62
:10068C0000BFFDE780B400AF00BFFDE780B400AF52
:10069C0000BFBD465DF8047B704780B400AF00BF5F
:1006AC00BD465DF8047B704780B400AF00BFBD460B
:1006BC005DF8047B704780B500AF00F01BF900BFFC
:1006CC0080BD000080B400AF064BD3F88830054ADB
:1006DC0043F47003C2F8883000BFBD465DF8047B5C
:1006EC00704700BF00ED00E080B500AF144B154A19
:1006FC001A60134B4FF4E1325A60114B00229A608E
:10070C000F4B0022DA600E4B00221A610C4B0C22AC
:10071C005A610B4B00229A61094B0022DA61084B9B
:10072C0000221A62064B00225A62054801F02CFD89
:10073C000346002B01D0FFF76BFF00BF80BD00BF4D
:10074C00280000200038014080B5A0B000AF7860D0
:10075C0007F16C0300221A605A609A60DA601A6121
:10076C0007F110035C220021184602F05AFA7B684C
:10077C001B681F4A934237D101233B6100233B6323
:10078C0007F11003184601F0F5F90346002B01D0D0
:10079C00FFF73EFF174B1B6E164A43F4804313665C
:1007AC00144B1B6E03F48043FB60FB68114BDB6C3A
:1007BC00104A43F00103D3640E4BDB6C03F00103CE
:1007CC00BB60BB684FF4C063FB6602233B6700232E
:1007DC007B670323BB670723FB6707F16C03194691
:1007EC004FF0904000F0B0F900BF8037BD4680BD9F
:1007FC000038014000100240DFF834D0FFF762FFF0
:10080C000C480D490D4A002302E0D458C45004335F
:10081C00C4188C42F9D30A4A0A4C002301E0136035
:10082C000432A242FBD302F005FAFFF783FEFEE787
:10083C0000C00020000000200C000020002D00084B
:10084C000C000020B4000020FEE780B582B000AFA1
:10085C000023FB71032000F043F90F2000F00EF889
:10086C000346002B02D00123FB7101E0FFF7D6FEFB
:10087C00FB7918460837BD4680BD000080B584B0B2
:10088C0000AF78600023FB73174B1B78002B23D031
:10089C00164B1A68144B1B7819464FF47A73B3FB3A
:1008AC00F1F3B2FBF3F3184600F041F90346002BC9
:1008BC000FD17B680F2B09D8002279684FF0FF30DD
:1008CC0000F019F90A4A7B68136007E00123FB73F7
:1008DC0004E00123FB7301E00123FB73FB7B18464F
:1008EC001037BD4680BD00BF08000020000000206E
:1008FC000400002080B400AF064B1B781A46064B50
:10090C001B681344044A136000BFBD465DF8047BAA
:10091C00704700BF08000020B000002080B400AF7A
:10092C00034B1B681846BD465DF8047B704700BF3F
:10093C00B000002080B584B000AF7860FFF7EEFF08
:10094C00B8607B68FB60FB68B3F1FF3F05D00A4BD6
:10095C001B781A46FB681344FB6000BFFFF7DEFFF1
:10096C000246BB68D31AFA689A42F7D800BF00BF98
:10097C001037BD4680BD00BF0800002080B485B094
:10098C0000AF78607B6803F00703FB600C4BDB68FF
:10099C00BB60BA684FF6FF031340BB60FB681A02DA
:1009AC00BB68134343F0BF6343F40033BB60044A9A
:1009BC00BB68D36000BF1437BD465DF8047B70473D
:1009CC0000ED00E080B400AF044BDB681B0A03F0C1
:1009DC0007031846BD465DF8047B704700ED00E048
:1009EC0080B483B000AF03463960FB7197F90730D0
:1009FC00002B0ADB3B68DAB20C4997F9073012017D
:100A0C00D2B20B4483F800230AE03B68DAB20849FF
:100A1C00FB7903F00F03043B1201D2B20B441A769C
:100A2C0000BF0C37BD465DF8047B704700E100E069
:100A3C0000ED00E080B489B000AFF860B9607A6076
:100A4C00FB6803F00703FB61FB69C3F10703042B8D
:100A5C0028BF0423BB61FB690433062B02D9FB6955
:100A6C00033B00E000237B614FF0FF32BB6902FACD
:100A7C0003F3DA43BB681A407B699A404FF0FF31AD
:100A8C007B6901FA03F3D9437B680B401343184687
:100A9C002437BD465DF8047B7047000080B582B0FA
:100AAC0000AF78607B68013BB3F1807F01D30123F9
:100ABC000FE00A4A7B68013B53600F214FF0FF3077
:100ACC00FFF78EFF054B00229A60044B07221A6039
:100ADC00002318460837BD4680BD00BF10E000E07B
:100AEC0080B582B000AF78607868FFF747FF00BF31
:100AFC000837BD4680BD80B586B000AF0346B960EF
:100B0C007A60FB7300237B61FFF75CFF78617A6886
:100B1C00B9687869FFF78EFF024697F90F301146D6
:100B2C001846FFF75DFF00BF1837BD4680BD80B586
:100B3C0082B000AF78607868FFF7B0FF03461846C4
:100B4C000837BD4680BD000080B487B000AF786028
:100B5C00396000237B6154E13B681A6801217B6991
:100B6C0001FA03F31340FB60FB68002B00F0468195
:100B7C003B685B6803F00303012B05D03B685B68A3
:100B8C0003F00303022B30D17B689B683B617B69CC
:100B9C005B00032202FA03F3DB433A6913403B6127
:100BAC003B68DA687B695B0002FA03F33A6913432A
:100BBC003B617B683A699A607B685B683B610122A8
:100BCC007B6902FA03F3DB433A6913403B613B68F0
:100BDC005B681B0903F001027B6902FA03F33A69B3
:100BEC0013433B617B683A695A603B685B6803F06E
:100BFC000303032B17D07B68DB683B617B695B00CD
:100C0C00032202FA03F3DB433A6913403B613B686E
:100C1C009A687B695B0002FA03F33A6913433B6100
:100C2C007B683A69DA603B685B6803F00303022B6C
:100C3C0023D17B69DA087B68083253F822303B6198
:100C4C007B6903F007039B000F2202FA03F3DB43DB
:100C5C003A6913403B613B681A697B6903F00703EF
:100C6C009B0002FA03F33A6913433B617B69DA0890
:100C7C007B680832396943F822107B681B683B613A
:100C8C007B695B00032202FA03F3DB433A691340EE
:100C9C003B613B685B6803F003027B695B0002FA13
:100CAC0003F33A6913433B617B683A691A603B680A
:100CBC005B6803F44033002B00F0A080584B1B6E94
:100CCC00574A43F001031366554B1B6E03F00103A7
:100CDC00BB60BB68534A7B699B08023352F82330D4
:100CEC003B617B6903F003039B000F2202FA03F3C1
:100CFC00DB433A6913403B617B68B3F1904F19D0E9
:100D0C007B68494A934213D07B68484A93420DD082
:100D1C007B68474A934207D07B68464A934201D18D
:100D2C00042308E0072306E0032304E0022302E087
:100D3C00012300E000237A6902F003029200934041
:100D4C003A6913433B6137497B699B0802333A6923
:100D5C0041F82320384B9B683B61FB68DB433A69C5
:100D6C0013403B613B685B6803F48013002B03D09A
:100D7C003A69FB6813433B612F4A3B6993602E4BE6
:100D8C00DB683B61FB68DB433A6913403B613B68C2
:100D9C005B6803F40013002B03D03A69FB68134320
:100DAC003B61254A3B69D360234B5B683B61FB6825
:100DBC00DB433A6913403B613B685B6803F40033E7
:100DCC00002B03D03A69FB6813433B611A4A3B6919
:100DDC005360194B1B683B61FB68DB433A6913405A
:100DEC003B613B685B6803F48033002B03D03A69AA
:100DFC00FB6813433B61104A3B6913607B69013309
:100E0C007B613B681A687B6922FA03F3002B7FF441
:100E1C00A3AE00BF00BF1C37BD465DF8047B704716
:100E2C000010024000000140000400480008004887
:100E3C00000C0048001000480004014080B400AFD2
:100E4C00044B1B6803F4C0631846BD465DF8047B75
:100E5C00704700BF0070004080B485B000AF786070
:100E6C007B68B3F5007F30D1234B1B6803F4C06360
:100E7C00B3F5007F38D0204B1B6823F4C0631E4AA7
:100E8C0043F4007313601D4B1B68322202FB03F307
:100E9C001B4AA2FB03239B0C0133FB6002E0FB68A3
:100EAC00013BFB60144B5B6903F48063B3F5806F0B
:100EBC0002D1FB68002BF2D10F4B5B6903F480630A
:100ECC00B3F5806F10D103230FE00B4B1B6803F4B9
:100EDC00C063B3F5806F07D0074B1B6823F4C06366
:100EEC00054A43F480631360002318461437BD464B
:100EFC005DF8047B704700BF0070004000000020CC
:100F0C0083DE1B4380B588B000AF78607B68002B14
:100F1C0002D1012300F002BC964B9B6803F00C033A
:100F2C00BB61944BDB6803F003037B617B681B683C
:100F3C0003F01003002B00F0E480BB69002B07D0FA
:100F4C00BB690C2B40F08B807B69012B40F08780B8
:100F5C00884B1B6803F00203002B05D07B689B6950
:100F6C00002B01D10123D9E37B681A6A814B1B68E2
:100F7C0003F00803002B04D07E4B1B6803F0F00336
:100F8C0005E07C4BD3F894301B0903F0F00393423B
:100F9C0023D27B681B6A184600F08CFD0346002B9D
:100FAC0001D00123BAE3734B1B68724A43F0080368
:100FBC001360704B1B6823F0F0027B681B6A6D4951
:100FCC0013430B606B4B5B6823F47F427B68DB69DC
:100FDC001B02684913434B6025E0664B1B68654A4E
:100FEC0043F008031360634B1B6823F0F0027B682B
:100FFC001B6A604913430B605E4B5B6823F47F42B2
:10100C007B68DB691B025B4913434B60BB69002B9C
:10101C0009D17B681B6A184600F04CFD0346002B77
:10102C0001D001237AE300F081FC0246514B9B680E
:10103C001B0903F00F035049CB5C03F01F0322FA8A
:10104C0003F34E4A13604E4B1B681846FFF716FC11
:10105C000346FB73FB7B002B52D0FB7B5EE37B6870
:10106C009B69002B32D0434B1B68424A43F001036F
:10107C001360FFF753FC386108E0FFF74FFC0246A2
:10108C003B69D31A022B01D9032347E3394B1B6865
:10109C0003F00203002BF0D0364B1B68354A43F0AB
:1010AC0008031360334B1B6823F0F0027B681B6A48
:1010BC00304913430B602F4B5B6823F47F427B68F2
:1010CC00DB691B022B4913434B601AE0294B1B684D
:1010DC00284A23F001031360FFF720FC386108E075
:1010EC00FFF71CFC02463B69D31A022B01D90323E0
:1010FC0014E3204B1B6803F00203002BF0D100E03B
:10110C0000BF7B681B6803F00103002B73D0BB6925
:10111C00082B05D0BB690C2B0ED17B69032B0BD193
:10112C00144B1B6803F40033002B63D07B685B68A3
:10113C00002B5FD10123F1E27B685B68B3F5803F44
:10114C0006D10C4B1B680B4A43F48033136025E02B
:10115C007B685B68B3F5A02F14D1064B1B68054A5E
:10116C0043F480231360034B1B68024A43F480331F
:10117C00136013E000100240A82C000800000020AF
:10118C0004000020A04B1B689F4A23F4803313609B
:10119C009D4B1B689C4A23F4802313607B685B681F
:1011AC00002B13D0FFF7BAFB386108E0FFF7B6FB52
:1011BC0002463B69D31A642B01D90323AEE2924B4E
:1011CC001B6803F40033002BF0D014E0FFF7A6FBF0
:1011DC00386108E0FFF7A2FB02463B69D31A642B87
:1011EC0001D903239AE2884B1B6803F40033002BCC
:1011FC00F0D100E000BF7B681B6803F00203002BFA
:10120C0060D0BB69042B05D0BB690C2B19D17B6951
:10121C00022B16D17C4B1B6803F48063002B05D08A
:10122C007B68DB68002B01D1012377E2764B5B688E
:10123C0023F0F8527B681B691B06734913434B6000
:10124C0040E07B68DB68002B23D06F4B1B686E4A39
:10125C0043F480731360FFF761FB386108E0FFF71C
:10126C005DFB02463B69D31A022B01D9032355E2DD
:10127C00654B1B6803F48063002BF0D0624B5B68FA
:10128C0023F0F8527B681B691B065F4913434B60C4
:10129C0018E05D4B1B685C4A23F480731360FFF706
:1012AC003DFB386108E0FFF739FB02463B69D31A76
:1012BC00022B01D9032331E2534B1B6803F48063E7
:1012CC00002BF0D17B681B6803F00803002B3CD08B
:1012DC007B685B69002B1CD04B4BD3F894304A4A8B
:1012EC0043F00103C2F89430FFF718FB386108E0B3
:1012FC00FFF714FB02463B69D31A022B01D90323D7
:10130C000CE2414BD3F8943003F00203002BEFD0E6
:10131C001BE03D4BD3F894303B4A23F00103C2F859
:10132C009430FFF7FBFA386108E0FFF7F7FA024652
:10133C003B69D31A022B01D90323EFE1324BD3F8CB
:10134C00943003F00203002BEFD17B681B6803F091
:10135C000403002B00F0A6800023FB772A4B9B6D27
:10136C0003F08053002B0DD1274B9B6D264A43F085
:10137C0080539365244B9B6D03F08053BB60BB681B
:10138C000123FB77214B1B6803F48073002B18D1CE
:10139C001E4B1B681D4A43F480731360FFF7BEFAA3
:1013AC00386108E0FFF7BAFA02463B69D31A022B00
:1013BC0001D90323B2E1154B1B6803F48073002B96
:1013CC00F0D07B689B68012B08D10F4BD3F8903081
:1013DC000D4A43F00103C2F8903029E07B689B680A
:1013EC00052B15D1084BD3F89030074A43F0040372
:1013FC00C2F89030044BD3F89030034A43F0010309
:10140C00C2F8903014E000BF0010024000700040A1
:10141C009A4BD3F89030994A23F00103C2F89030DC
:10142C00964BD3F89030954A23F00403C2F89030D1
:10143C007B689B68002B16D0FFF770FA38610AE0C6
:10144C00FFF76CFA02463B69D31A41F28832934299
:10145C0001D9032362E1894BD3F8903003F00203E6
:10146C00002BEDD015E0FFF759FA38610AE0FFF7D1
:10147C0055FA02463B69D31A41F28832934201D99C
:10148C0003234BE17D4BD3F8903003F00203002B88
:10149C00EDD1FB7F012B05D1784B9B6D774A23F067
:1014AC00805393657B681B6803F02003002B3CD0B2
:1014BC007B685B6A002B1CD0704BD3F898306F4A5A
:1014CC0043F00103C2F89830FFF728FA386108E0BE
:1014DC00FFF724FA02463B69D31A022B01D90323E6
:1014EC001CE1664BD3F8983003F00203002BEFD0CD
:1014FC001BE0624BD3F89830604A23F00103C2F82A
:10150C009830FFF70BFA386108E0FFF707FA02464C
:10151C003B69D31A022B01D90323FFE0574BD3F8B5
:10152C00983003F00203002BEFD17B689B6A002BF1
:10153C0000F0F3807B689B6A022B40F0C9804F4B14
:10154C00DB687B617B6903F003027B68DB6A9A4290
:10155C002CD17B6903F070027B681B6B013B1B0178
:10156C009A4223D17B6903F4FE427B685B6B1B02BE
:10157C009A421BD17B6903F078427B689B6BDB063C
:10158C009A4213D17B6903F4C0027B68DB6B5B0866
:10159C00013B5B059A4209D17B6903F0C0627B6811
:1015AC001B6C5B08013B5B069A426BD0BB690C2B36
:1015BC0062D0324B1B6803F08063002B01D00123F7
:1015CC00ACE02E4B1B682D4A23F080731360FFF7A1
:1015DC00A5F9386108E0FFF7A1F902463B69D31A77
:1015EC00022B01D9032399E0244B1B6803F00073F1
:1015FC00002BF0D1214BDA68214B13407A68D16A69
:10160C007A68126B013A120111437A68526B12021A
:10161C0011437A68D26B5208013A520511437A6829
:10162C00126C5208013A520611437A68926BD20638
:10163C000A4312491343CB60104B1B680F4A43F00B
:10164C00807313600D4BDB680C4A43F08073D360DE
:10165C00FFF764F9386108E0FFF760F902463B696F
:10166C00D31A022B01D9032358E0044B1B6803F057
:10167C000073002BF0D050E001234FE0001002402B
:10168C008C809D01274B1B6803F00073002B44D109
:10169C00244B1B68234A43F080731360214BDB6897
:1016AC00204A43F08073D360FFF738F9386108E0C3
:1016BC00FFF734F902463B69D31A022B01D90323F5
:1016CC002CE0184B1B6803F00073002BF0D024E0C7
:1016DC00BB690C2B1FD0134B1B68124A23F0807371
:1016EC001360FFF71BF9386108E0FFF717F90246A2
:1016FC003B69D31A022B01D903230FE0094B1B685A
:10170C0003F00073002BF0D1064BDA680549064B49
:10171C001340CB6001E0012300E000231846203782
:10172C00BD4680BD00100240FCFFEEFE80B584B0CB
:10173C0000AF786039607B68002B01D10123E7E0B2
:10174C00754B1B6803F007033A689A4210D9724B29
:10175C001B6823F0070270493B6813430B606E4B08
:10176C001B6803F007033A689A4201D00123CFE0CB
:10177C007B681B6803F00203002B10D07B689A680F
:10178C00664B9B6803F0F0039A4208D9634B9B6845
:10179C0023F0F0027B689B68604913438B607B6885
:1017AC001B6803F00103002B4CD07B685B68032B98
:1017BC0007D15A4B1B6803F00073002B21D1012376
:1017CC00A6E07B685B68022B07D1544B1B6803F4C3
:1017DC000033002B15D101239AE07B685B68002B4A
:1017EC0007D14E4B1B6803F00203002B09D10123D8
:1017FC008EE04A4B1B6803F48063002B01D101235C
:10180C0086E0464B9B6823F003027B685B68434988
:10181C0013438B60FFF782F8F8600AE0FFF77EF85D
:10182C000246FB68D31A41F28832934201D9032352
:10183C006EE03A4B9B6803F00C027B685B689B0084
:10184C009A42EBD17B681B6803F00203002B10D08B
:10185C007B689A68314B9B6803F0F0039A4208D27C
:10186C002E4B9B6823F0F0027B689B682B4913433B
:10187C008B60294B1B6803F007033A689A4210D21D
:10188C00254B1B6823F0070223493B6813430B606D
:10189C00214B1B6803F007033A689A4201D00123DD
:1018AC0036E07B681B6803F00403002B08D01B4B4D
:1018BC009B6823F4E0627B68DB68184913438B60F8
:1018CC007B681B6803F00803002B09D0134B9B6843
:1018DC0023F460527B681B69DB00104913438B6057
:1018EC0000F024F802460D4B9B681B0903F00F0314
:1018FC000B49CB5C03F01F0322FA03F3094A136074
:10190C00094B1B681846FEF7B9FF0346FB72FB7ABE
:10191C0018461037BD4680BD002002400010024022
:10192C00A82C0008000000200400002080B489B01E
:10193C0000AF0023FB610023BB613E4B9B6803F0AF
:10194C000C033B613B4BDB6803F00303FB603B691F
:10195C00002B05D03B690C2B21D1FB68012B1ED130
:10196C00344B1B6803F00803002B07D1314BD3F821
:10197C0094301B0A03F00F03FB6105E02D4B1B6831
:10198C001B0903F00F03FB612B4AFB6952F8233050
:10199C00FB613B69002B0DD1FB69BB610AE03B6924
:1019AC00042B02D1254BBB6104E03B69082B01D110
:1019BC00234BBB613B690C2B34D11E4BDB6803F012
:1019CC000303BB60BB68022B03D0BB68032B03D0A3
:1019DC0005E01A4B7B6105E0194B7B6102E0FB696A
:1019EC007B6100BF134BDB681B0903F0070301335A
:1019FC007B60104BDB681B0A03F07F037A6903FBE7
:101A0C0002F27B68B2FBF3F37B610A4BDB685B0E83
:101A1C0003F0030301335B003B607A693B68B2FB64
:101A2C00F3F3BB61BB6918462437BD465DF8047BF4
:101A3C00704700BF00100240C02C00080024F400C6
:101A4C0000127A0080B400AF034B1B681846BD46E9
:101A5C005DF8047B704700BF0000002080B500AF2C
:101A6C00FFF7F0FF0246064B9B681B0A03F00703C7
:101A7C000449CB5C03F01F0322FA03F3184680BD24
:101A8C0000100240B82C000880B500AFFFF7DAFF59
:101A9C000246064B9B68DB0A03F007030449CB5C48
:101AAC0003F01F0322FA03F3184680BD0010024016
:101ABC00B82C000880B586B000AF786000233B617D
:101ACC002A4B9B6D03F08053002B03D0FFF7B6F924
:101ADC00786114E0254B9B6D244A43F08053936549
:101AEC00224B9B6D03F08053FB60FB68FFF7A6F95C
:101AFC0078611E4B9B6D1D4A23F0805393657B6967
:101B0C00B3F5007F0BD17B68802B19D97B68A02B98
:101B1C0002D902233B6113E001233B6110E07B6897
:101B2C00802B02D903233B610AE07B68802B02D116
:101B3C0002233B6104E07B68702B01D101233B61E4
:101B4C000B4B1B6823F0070209493B6913430B60DD
:101B5C00074B1B6803F007033A699A4201D0012333
:101B6C0000E0002318461837BD4680BD0010024027
:101B7C000020024080B586B000AF78600023FB7473
:101B8C000023BB747B681B6803F40063002B31D00B
:101B9C007B685B6CB3F5400F1AD0B3F5400F14D8CB
:101BAC00002B09D0B3F5000F0FD15D4BDB685C4AFD
:101BBC0043F48033D3600CE07B6804330021184677
:101BCC0000F0F0F90346FB7403E00123FB7400E022
:101BDC0000BFFB7C002B0BD1514BD3F8883023F486
:101BEC0040027B685B6C4E491343C1F8883001E0BE
:101BFC00FB7CBB747B681B6803F40033002B00F088
:101C0C009E8000237B74464B9B6D03F08053002B0E
:101C1C0001D1012300E00023002B0DD0404B9B6D24
:101C2C003F4A43F0805393653D4B9B6D03F08053CB
:101C3C00BB60BB6801237B743A4B1B68394A43F485
:101C4C0080731360FEF76AFEF86009E0FEF766FE2B
:101C5C000246FB68D31A022B02D90323FB7405E05E
:101C6C00304B1B6803F48073002BEFD0FB7C002BF4
:101C7C005AD12B4BD3F8903003F440737B617B69C2
:101C8C00002B1ED07B689B6D7A699A4219D0244B2D
:101C9C00D3F8903023F440737B61214BD3F8903010
:101CAC001F4A43F48033C2F890301D4BD3F8903068
:101CBC001B4A23F48033C2F89030194A7B69C2F86E
:101CCC0090307B6903F00103002B16D0FEF726FE43
:101CDC00F8600BE0FEF722FE0246FB68D31A41F2D5
:101CEC008832934202D90323FB7406E00C4BD3F8E1
:101CFC00903003F00203002BECD0FB7C002B0BD1BB
:101D0C00074BD3F8903023F440727B689B6D0449E9
:101D1C001343C1F8903009E0FB7CBB7406E000BFB4
:101D2C000010024000700040FB7CBB747B7C012BDC
:101D3C0005D19B4B9B6D9A4A23F0805393657B682E
:101D4C001B6803F00103002B0AD0954BD3F88830A5
:101D5C0023F003027B681B6A91491343C1F8883056
:101D6C007B681B6803F00203002B0AD08C4BD3F862
:101D7C00883023F00C027B685B6A89491343C1F8F5
:101D8C0088307B681B6803F00403002B0AD0844B5B
:101D9C00D3F8883023F030027B689B6A8049134368
:101DAC00C1F888307B681B6803F02003002B0AD035
:101DBC007B4BD3F8883023F440627B68DB6A78492C
:101DCC001343C1F888307B681B6803F40073002B45
:101DDC000AD0734BD3F8883023F440227B68DB6B3A
:101DEC006F491343C1F888307B681B6803F4806328
:101DFC00002B0AD06A4BD3F8883023F440127B684E
:101E0C001B6C67491343C1F888307B681B6803F06F
:101E1C004003002B0AD0624BD3F8883023F4405295
:101E2C007B681B6B5E491343C1F888307B681B6869
:101E3C0003F08003002B0AD0594BD3F8883023F4DD
:101E4C0040427B685B6B56491343C1F888307B6812
:101E5C001B6803F48073002B0AD0514BD3F88830E5
:101E6C0023F440327B689B6B4D491343C1F8883097
:101E7C007B681B6803F40023002B28D0484BD3F855
:101E8C00883023F040627B689B6C45491343C1F852
:101E9C0088307B689B6CB3F1006F06D1404BDB68DC
:101EAC003F4A43F48013D36011E07B689B6CB3F121
:101EBC00806F0CD17B6804330121184600F072F856
:101ECC000346FB74FB7C002B01D0FB7CBB747B6852
:101EDC001B6803F48023002B28D0314BD3F88830B7
:101EEC0023F040627B68DB6C2D491343C1F88830CA
:101EFC007B68DB6CB3F1006F06D1294BDB68284A99
:101F0C0043F48013D36011E07B68DB6CB3F1806F1A
:101F1C000CD17B6804330121184600F043F80346CA
:101F2C00FB74FB7C002B01D0FB7CBB747B681B68B7
:101F3C0003F48043002B1CD0194BD3F8883023F0CA
:101F4C0040527B681B6D16491343C1F888307B687F
:101F5C001B6DB3F1805F0CD17B68043302211846F2
:101F6C0000F020F80346FB74FB7C002B01D0FB7CBB
:101F7C00BB747B681B6803F40043002B0AD0084B2E
:101F8C00D3F8883023F080427B685B6D044913439F
:101F9C00C1F88830BB7C18461837BD4680BD00BFE1
:101FAC000010024080B584B000AF78603960002327
:101FBC00FB73744BDB6803F00303002B18D0714BDD
:101FCC00DB6803F003027B681B689A420DD17B68C7
:101FDC001B68002B09D06B4BDB681B0903F0070354
:101FEC005A1C7B685B689A4247D00123FB7344E020
:101FFC007B681B68032B18D0032B25D8012B02D030
:10200C00022B09D020E05F4B1B6803F00203002B6E
:10201C001DD10123FB731AE05A4B1B6803F4806338
:10202C00002B16D10123FB7313E0564B1B6803F4F2
:10203C000033002B0FD1534B1B6803F48023002B70
:10204C0009D10123FB7306E00123FB7304E000BFFD
:10205C0002E000BF00E000BFFB7B002B0DD1494B21
:10206C00DB6823F073027B6819687B685B68013B53
:10207C001B010B4343491343CB60FB7B002B7CD1EF
:10208C00404B1B683F4A23F080631360FEF746FC0D
:10209C00B86009E0FEF742FC0246BB68D31A022B7B
:1020AC0002D90323FB7305E0364B1B6803F0006376
:1020BC00002BEFD1FB7B002B5FD13B68002B10D1A9
:1020CC00304B1B6923F0784323F4FE437A68926803
:1020DC0011027A68D268D2060A432A4913430B616B
:1020EC0027E03B68012B12D1264B1B6923F4C0035C
:1020FC0023F4FE437A68926811027A6812695208D6
:10210C00013A52050A431F4913430B6111E01D4B61
:10211C001B6923F0C06323F4FE437A6892681102B2
:10212C007A6852695208013A52060A431549134318
:10213C000B61144B1B68134A43F080631360FEF76A
:10214C00EDFBB86009E0FEF7E9FB0246BB68D31A69
:10215C00022B02D90323FB7305E00A4B1B6803F027
:10216C000063002BEFD0FB7B002B06D1054B1A69CB
:10217C007B689B69034913430B61FB7B1846103743
:10218C00BD4680BD0010024080B582B000AF7860C3
:10219C007B68002B01D1012340E07B68DB6F002BB7
:1021AC0006D17B68002283F878207868FEF7CCFA99
:1021BC007B682422DA677B681B681A687B681B685B
:1021CC0022F001021A607B685B6A002B02D07868EF
:1021DC0000F00CFB786800F0AFF80346012B01D13E
:1021EC0001231BE07B681B685A687B681B6822F420
:1021FC0090425A607B681B689A687B681B6822F067
:10220C002A029A607B681B681A687B681B6842F01C
:10221C0001021A60786800F08BFB034618460837F9
:10222C00BD4680BD80B58AB002AFF860B9603B6036
:10223C001346FB80FB68DB6F202B77D1BB68002B30
:10224C0002D0FB88002B01D1012370E0FB68002237
:10225C00C3F88420FB682122DA67FEF75FFB786104
:10226C00FB68FA88A3F85020FB68FA88A3F8522080
:10227C00FB689B68B3F5805F08D1FB681B69002B7A
:10228C0004D10023FB61BB68BB6103E0BB68FB614D
:10229C000023BB612FE03B6800937B690022802107
:1022AC00F86800F0EDFB0346002B04D0FB682022FD
:1022BC00DA6703233BE0FB69002B0BD1BB691A885F
:1022CC00FB681B68C2F3080292B21A85BB69023321
:1022DC00BB6107E0FB691A78FB681B681A85FB6910
:1022EC000133FB61FB68B3F852309BB2013B9AB2ED
:1022FC00FB68A3F85220FB68B3F852309BB2002B5A
:10230C00C9D13B6800937B6900224021F86800F03A
:10231C00B7FB0346002B04D0FB682022DA670323AB
:10232C0005E0FB682022DA67002300E00223184650
:10233C002037BD4680BD00002DE9B04F8AB000AFFC
:10234C00F860002387F82230FB689A68FB681B69E9
:10235C001A43FB685B691A43FB68DB6913437B62B6
:10236C00FB681B681A689E4B1340FA681268796AFE
:10237C000B431360FB681B685B6823F44051FB68DC
:10238C00DA68FB681B680A435A60FB689B697B62CE
:10239C00FB681B68934A934204D0FB681B6A7A6AF9
:1023AC0013437B62FB681B689B6823F43061FB68FA
:1023BC001B687A6A0A439A60FB681B688A4A9342D4
:1023CC0026D18A4BD3F8883003F00303032B1BD898
:1023DC0001A252F823F000BFF523000805240008E1
:1023EC00FD2300080D240008012387F82330ABE0FF
:1023FC00022387F82330A7E0042387F82330A3E0D7
:10240C00082387F823309FE0102387F823309BE0C4
:10241C00FB681B68764A934238D1744BD3F88830EA
:10242C0003F00C030C2B2DD801A252F823F000BFA3
:10243C0071240008912400089124000891240008BC
:10244C00812400089124000891240008912400089C
:10245C007924000891240008912400089124000894
:10246C0089240008002387F823306DE0022387F8C5
:10247C00233069E0042387F8233065E0082387F8CC
:10248C00233061E0102387F823305DE0FB681B6884
:10249C00584A934225D1554BD3F8883003F030037A
:1024AC00302B16D0302B18D8202B0AD0202B14D838
:1024BC00002B02D0102B08D00FE0002387F823301C
:1024CC0042E0022387F823303EE0042387F82330D0
:1024DC003AE0082387F8233036E0102387F82330BE
:1024EC0032E0FB681B683F4A93422AD13F4BD3F83A
:1024FC00883003F44063B3F5406F1AD0B3F5406FE6
:10250C001BD8B3F5006F0CD0B3F5006F15D8002BAA
:10251C0003D0B3F5806F08D00FE0002387F8233089
:10252C0012E0022387F823300EE0042387F82330CF
:10253C000AE0082387F8233006E0102387F82330BD
:10254C0002E0102387F82330FB681B68254A93426E
:10255C0040F08A8097F82330082B24D801A252F837
:10256C0023F000BF95250008B32500089D25000821
:10257C00B3250008A3250008B3250008B3250008DF
:10258C00B3250008AB250008FFF768FAF86110E0E6
:10259C00194BFB610DE0FFF7C9F9F86109E04FF445
:1025AC000043FB6105E00023FB61012387F8223027
:1025BC0000BFFB69002B00F00981FB685A681346C9
:1025CC005B001344FA699A4205D3FB685B681B03F2
:1025DC00FA699A4212D9012387F82230F6E000BF3B
:1025EC00F369FFEF0080004000380140001002400A
:1025FC0000440040004800400024F400FB69002225
:10260C001C4615464FF000024FF000032B0243EA24
:10261C0014632202F96849684908002088468146FB
:10262C0012EB080A43EB090BFB685B6800223B606A
:10263C007A60D7E9002350465946FDF7C1FD0246A2
:10264C000B461346BB61BB69B3F5407F08D3BB692E
:10265C00B3F5801F04D2FB681B68BA69DA60B5E079
:10266C00012387F82230B1E0FB68DB69B3F5004F3A
:10267C005DD197F82330082B27D801A252F823F00C
:10268C00B1260008B9260008C1260008D726000884
:10269C00C7260008D7260008D7260008D72600082A
:1026AC00CF260008FFF7DAF9F86114E0FFF7ECF930
:1026BC00F86110E04C4BFB610DE0FFF737F9F86166
:1026CC0009E04FF40043FB6105E00023FB610123AB
:1026DC0087F8223000BFFB69002B77D0FB695A00CA
:1026EC00FB685B685B081A44FB685B68B2FBF3F33E
:1026FC00BB61BB690F2B16D9BB69B3F5803F12D2F6
:10270C00BB699BB223F00F03FB82BB695B089BB2D6
:10271C0003F007039AB2FB8A1343FB82FB681B6826
:10272C00FA8ADA6052E0012387F822304EE097F8FB
:10273C002330082B27D801A252F823F06D2700086C
:10274C00752700087D2700089327000883270008B9
:10275C009327000893270008932700088B2700086D
:10276C00FFF77CF9F86114E0FFF78EF9F86110E0DF
:10277C001D4BFB610DE0FFF7D9F8F86109E04FF450
:10278C000043FB6105E00023FB61012387F8223045
:10279C0000BFFB69002B19D0FB685B685A08FB690A
:1027AC001A44FB685B68B2FBF3F3BB61BB690F2B8C
:1027BC0009D9BB69B3F5803F05D2BB699AB2FB68F6
:1027CC001B68DA6002E0012387F82230FB680022E4
:1027DC009A66FB680022DA6697F82230184628378A
:1027EC00BD46BDE8B08F00BF0024F40080B483B0B8
:1027FC0000AF78607B685B6A03F00803002B0AD09B
:10280C007B681B685B6823F400417B685A6B7B68B0
:10281C001B680A435A607B685B6A03F00103002B58
:10282C000AD07B681B685B6823F400317B689A6A6A
:10283C007B681B680A435A607B685B6A03F002037F
:10284C00002B0AD07B681B685B6823F480317B68A3
:10285C00DA6A7B681B680A435A607B685B6A03F020
:10286C000403002B0AD07B681B685B6823F480216F
:10287C007B681A6B7B681B680A435A607B685B6ACF
:10288C0003F01003002B0AD07B681B689B6823F4B1
:10289C0080517B689A6B7B681B680A439A607B68E3
:1028AC005B6A03F02003002B0AD07B681B689B68D3
:1028BC0023F400517B68DA6B7B681B680A439A60CF
:1028CC007B685B6A03F04003002B1AD07B681B68A3
:1028DC005B6823F480117B681A6C7B681B680A4365
:1028EC005A607B681B6CB3F5801F0AD17B681B6830
:1028FC005B6823F4C0017B685A6C7B681B680A43D5
:10290C005A607B685B6A03F08003002B0AD07B68FB
:10291C001B685B6823F400217B689A6C7B681B68DE
:10292C000A435A6000BF0C37BD465DF8047B704704
:10293C0080B598B002AF78607B680022C3F8842021
:10294C00FDF7ECFF78657B681B681B6803F00803D8
:10295C00082B2ED16FF07E4300937B6D00224FF439
:10296C000011786800F08CF80346002B21D07B68AE
:10297C001B68BB63BB6B53E8003F7B637B6B23F033
:10298C0080033B657B681B681A463B6D7B643A642D
:10299C00396C7A6C41E80023FB63FB6B002BE6D1AE
:1029AC007B682022DA677B68002283F87820032377
:1029BC0062E07B681B681B6803F00403042B49D19D
:1029CC006FF07E4300937B6D00224FF4800178689A
:1029DC0000F056F80346002B3CD07B681B687B62EA
:1029EC007B6A53E8003F3B623B6A23F49073FB64C1
:1029FC007B681B681A46FB6C3B63FA62F96A3A6B9C
:102A0C0041E80023BB62BB6A002BE6D17B681B68E4
:102A1C0008333B613B6953E8003FFB60FB6823F0E4
:102A2C000103BB647B681B680833BA6CFA61BB6139
:102A3C00B969FA6941E800237B617B69002BE5D118
:102A4C007B682022C3F880207B68002283F87820E2
:102A5C00032311E07B682022DA677B682022C3F80D
:102A6C0080207B6800221A667B6800225A667B688D
:102A7C00002283F87820002318465837BD4680BDC5
:102A8C0080B584B000AFF860B9603B601346FB7151
:102A9C004FE0BB69B3F1FF3F4BD0FDF73FFF024660
:102AAC003B68D31ABA699A4202D3BB69002B01D195
:102ABC0003234EE0FB681B681B6803F00403002B28
:102ACC0037D0BB68802B34D0BB68402B31D0FB682F
:102ADC001B68DB6903F00803082B10D1FB681B682B
:102AEC0008221A62F86800F038F8FB680822C3F86C
:102AFC008420FB68002283F87820012329E0FB68FE
:102B0C001B68DB6903F40063B3F5006F11D1FB683C
:102B1C001B684FF400621A62F86800F01EF8FB683C
:102B2C002022C3F88420FB68002283F8782003233A
:102B3C000FE0FB681B68DA69BB681340BA689A42FD
:102B4C000CBF01230023DBB21A46FB799A42A0D0BA
:102B5C00002318461037BD4680BD80B495B000AF39
:102B6C0078607B681B687B637B6B53E8003F3B633F
:102B7C003B6B23F49073FB647B681B681A46FB6CFD
:102B8C003B64FA63F96B3A6C41E80023BB63BB6BA3
:102B9C00002BE6D17B681B6808333B623B6A53E829
:102BAC00003FFB61FB6923F00103BB647B681B687E
:102BBC000833BA6CFA62BB62B96AFA6A41E800235C
:102BCC007B627B6A002BE5D17B681B6E012B18D1D5
:102BDC007B681B68FB60FB6853E8003FBB60BB680D
:102BEC0023F010037B647B681B681A467B6CBB610B
:102BFC007A617969BA6941E800233B613B69002B32
:102C0C00E6D17B682022C3F880207B6800221A66FC
:102C1C007B6800229A6600BF5437BD465DF8047B82
:102C2C00704702440346934200D1704703F8011BDE
:102C3C00F9E7000070B50D4D0D4C641BA410002677
:102C4C00A64209D10B4D0C4C00F018F8641BA410D3
:102C5C000026A64205D170BD55F8043B98470136B5
:102C6C00EEE755F8043B98470136F2E7F82C0008DC
:102C7C00F82C0008F82C0008FC2C0008F8B500BF54
:102C8C00F8BC08BC9E467047F8B500BFF8BC08BC41
:042C9C009E46704799
:102CA0007465737400000000000000000000000064
:102CB00001020304060708090000000001020304E2
:102CC000A0860100400D0300801A060000350C00AC
:102CD00040420F0080841E0000093D0000127A006F
:102CE0000024F40000366E010048E801006CDC02AC
:082CF0000CD5FF7F010000007C
:042CF800B10100081E
:042CFC008D0100083E
:0C2D000000093D00100000000100000070
:0400000508000805E2
:00000001FF
